:040103007F647E0097
:0A010700EF1FAC0670011E4C600CE7
:0C011100007508021508E50860EC80F895
:01011D0022BF
:10000300E4FDFCFF1200C2120103E4FDFC7F0112B8
:1000130000C2120103E4FDFC7F021200C2120103BD
:10002300E4FDFC7F031200C2120103E4FDFC7F0424
:100033001200C2120103E4FDFC7F051200C212018B
:1000430003E4FDFC7F061200C2120103E4FDFC7F02
:10005300071200C2120103E4FDFC7F081200C21262
:060063000103E4FEFF2290
:1000C2008F088C098D0A1201407FA012009912013B
:1000D2001EAF0812009912011EAF0A1200991201F6
:0400E2001E020149B0
:020069008F0BFB
:10006B001201407FA012009912011EAF0B120099D2
:10007B0012011E1201407FA112009912011E1200E3
:0D008B00E68F0C7F01120136120149AF0C07
:010098002245
:09014000D2A0D2A1C2A0C2A122EA
:07014900C2A0D2A1D2A02246
:02009900AD07B1
:10009B00E4FB74807E00A803088006CEA2E713CE93
:1000AB0013D8F8FFEDF582EF558224FF92A0D2A171
:0600BB00C2A10BBB08DC32
:0100C100221C
:1000E600D2A0E4FED2A130A00D7480A8060880023A
:0C00F600C313D8FC4207C2A10EBE08E8EC
:0101020022DA
:0A013600EF24FF92A0D2A1C2A12283
:0B011E00D2A0D2A1A2A0E433FFC2A136
:0101290022B3
:0300000002012AD0
:0C012A00787FE4F6D8FD75810C0200031C
:00000001FF
